:100000000C942A000C943F000C943F000C943F0089
:100010000C943F000C943F000C943F000C943F0064
:100020000C943F000C943F000C943F000C943F0054
:100030000C943F000C943F000C943F000C943F0044
:100040000C943F000C943F000C943F000C943F0034
:100050000C943F0011241FBECFE5D8E0DEBFCDBF1A
:1000600010E0A0E6B0E0E2E0FBE002C005900D92F7
:10007000A236B107D9F70E943E020C947F050C947A
:10008000000060E081E40E94290261E081E40E94B6
:10009000290262E081E40E94290260E082E40E9479
:1000A000290261E082E40E94290262E082E40E9467
:1000B00029020E949203089560E082E40E943702C0
:1000C00061E082E40E94370262E082E40E9437022B
:1000D00060E081E40E94370261E081E40E9437021F
:1000E00062E081E40E9437020895CF92DF92EF929E
:1000F000FF9260E082E40E94300260E070E080EAFB
:1001000090E40E949C030E945C00C12CD12C7601DB
:1001100026C061E081E40E94300261E082E40E9436
:10012000300260E070E080E89EE30E949C0361E0A2
:1001300081E40E94370261E082E40E94370260E0BD
:1001400070E080E89EE30E949C0320E030E040E005
:100150005FE3C701B6010E94F6036B017C0120E05A
:1001600030E040EA50E4C701B6010E946204811108
:10017000D0CF60E081E40E94300262E082E40E941D
:10018000300260E070E080EA90E40E949C0360E04E
:1001900081E40E94370262E082E40E943702FF900D
:1001A000EF90DF90CF900895CF92DF92EF92FF9281
:1001B00060E082E40E94300260E081E40E9430024C
:1001C00061E081E40E94370260E070E080EA90E440
:1001D0000E949C030E945C00C12CD12C760126C099
:1001E00061E081E40E94300261E082E40E9430021A
:1001F00060E070E080E89EE30E949C0361E081E49F
:100200000E94370261E082E40E94370260E070E001
:1002100080E89EE30E949C0320E030E040E05FE342
:10022000C701B6010E94F6036B017C0120E030E0BB
:1002300040EA50E4C701B6010E9462048111D0CFA8
:1002400060E081E40E94300262E082E40E943002B9
:1002500060E070E080EA90E40E949C0360E081E44A
:100260000E94370262E082E40E943702FF90EF9022
:10027000DF90CF900895CF93DF9300D0CDB7DEB756
:1002800060E081E40E9430021A821982AE014F5F61
:100290005F4F60E070E080EA90E40E94B7038981DC
:1002A0009A81892BD1F062E082E40E94300260E002
:1002B00070E080EA90E40E949C0362E082E40E9485
:1002C000370260E070E080E89EE30E949C0381E0DA
:1002D00090E0909361008093600060E081E40E9470
:1002E00037020F900F90DF91CF910895CF92DF9258
:1002F000EF92FF92CF93DF9300D0CDB7DEB784E0CB
:1003000090E09A838983C12CD12C76013CC061E0B6
:1003100081E40E943002AE014F5F5F4F60E070E009
:1003200080E89EE30E94B70389819A81892B11F0AE
:100330000E94D4000E941602019711F40E94D4007A
:1003400061E081E40E943702AE014F5F5F4F60E0E1
:1003500070E080E89EE30E94B70389819A81892B2F
:1003600011F00E94D4000E941602019711F40E941D
:10037000D40020E030E040E05FE3C701B6010E9416
:10038000F6036B017C0120E030E040EA50E4C70155
:10039000B6010E9462048111BACF0F900F90DF91D5
:1003A000CF91FF90EF90DF90CF900895CF93DF93A0
:1003B00000D0CDB7DEB784E090E09A83898362E015
:1003C00081E40E943002AE014F5F5F4F60E070E059
:1003D00080EA90E40E94B70389819A81892B39F0E1
:1003E0000E94750062E081E40E94370204C062E06E
:1003F00081E40E9437020F900F90DF91CF91089512
:100400000E943B010E9476010E94D6010E94760163
:10041000F7CF982F862F40E0692F0E94450208955C
:10042000982F862F692F0E94BD020895CF93DF93E6
:100430001F92CDB7DEB71982AE014F5F5F4F60E00C
:1004400084E40E941002898190E00F90DF91CF91A7
:100450000895982F862F41E0692F0E944502089544
:10046000982F862F41E0692F0E9412030895982F3C
:10047000862F40E0692F0E94120308950E944100D8
:100480000E94000280E090E00895623429F118F49F
:10049000613439F008956334D1F1643409F452C001
:1004A000089541110CC02AB381E090E002C0880F8A
:1004B000991F6A95E2F7809582238ABB08954AB313
:1004C00021E030E0B90102C0660F771F8A95E2F79C
:1004D000CB01842B8ABB089541110CC027B381E066
:1004E00090E002C0880F991F6A95E2F780958223F9
:1004F00087BB089547B321E030E0B90102C0660F21
:10050000771F8A95E2F7CB01842B87BB08954111B1
:100510000CC024B381E090E002C0880F991F6A9557
:10052000E2F78095822384BB089544B321E030E054
:10053000B90102C0660F771F8A95E2F7CB01842BC1
:1005400084BB089541110CC021B381E090E002C04A
:10055000880F991F6A95E2F78095822381BB0895E1
:1005600041B321E030E0B90102C0660F771F8A95E0
:10057000E2F7CB01842B81BB0895623401F118F4BA
:10058000613431F00895633489F16434E9F10895F8
:100590009BB321E030E0B901082E02C0660F771F3F
:1005A0000A94E2F7292F30E026233723B90102C04D
:1005B000759567958A95E2F7FA016083089598B377
:1005C00021E030E0B901082E02C0660F771F0A94BF
:1005D000E2F7292F30E026233723B90102C07595B1
:1005E00067958A95E2F7FA016083089563B321E085
:1005F00030E0F90102C0EE0FFF1F8A95E2F7CF014C
:100600008623FA018083089560B321E030E0F90188
:1006100002C0EE0FFF1F8A95E2F7CF018623FA0191
:1006200080830895623439F118F4613439F0089503
:100630006334F1F1643409F458C0089541110EC0D7
:100640004BB321E030E0B90102C0660F771F8A95F5
:10065000E2F7CB01809584238BBB08954BB321E057
:1006600030E0B90102C0660F771F8A95E2F7CB012F
:10067000842B8BBB089541110EC048B321E030E0BC
:10068000B90102C0660F771F8A95E2F7CB0180950A
:10069000842388BB089548B321E030E0B90102C04B
:1006A000660F771F8A95E2F7CB01842B88BB0895EC
:1006B00041110EC045B321E030E0B90102C0660F20
:1006C000771F8A95E2F7CB018095842385BB089537
:1006D00045B321E030E0B90102C0660F771F8A956B
:1006E000E2F7CB01842B85BB089541110EC042B3C4
:1006F00021E030E0B90102C0660F771F8A95E2F76A
:10070000CB018095842382BB089542B321E030E081
:10071000B90102C0660F771F8A95E2F7CB01842BDF
:1007200082BB089513BE12BE60E084E40E940902F9
:1007300083B7816083BF089520E030E04AE755E445
:100740000E9412050E94670420E030E00BC083B7CE
:10075000816083BF08B600FEFDCF88B7816088BF87
:100760002F5F3F4F2617370794F313BE0895EF927C
:10077000FF920F931F93CF93DF937A0120E030E035
:100780004AE755E40E9412050E9467048B01C0E00D
:10079000D0E01DC083B7816083BF12C0809160002C
:1007A00090916100892B61F00E941602019741F43B
:1007B0001092610010926000F701D183C0830EC0D7
:1007C00008B600FEEBCF88B7816088BF2196C017BE
:1007D000D10704F3F7011182108213BEDF91CF918C
:1007E0001F910F91FF90EF9008955058BB27AA27B3
:1007F0000E940D040C94D8040E94CA0438F00E9490
:10080000D10420F039F49F3F19F426F40C94C70466
:100810000EF4E095E7FB0C94C104E92F0E94E90473
:1008200058F3BA17620773078407950720F079F425
:10083000A6F50C940B050EF4E0950B2EBA2FA02D07
:100840000B01B90190010C01CA01A0011124FF277D
:10085000591B99F0593F50F4503E68F11A16F04078
:10086000A22F232F342F4427585FF3CF4695379577
:100870002795A795F0405395C9F77EF41F16BA0B3C
:10088000620B730B840BBAF09150A1F0FF0FBB1FEA
:10089000661F771F881FC2F70EC0BA0F621F731F33
:1008A000841F48F4879577956795B795F7959E3F90
:1008B00008F0B0CF9395880F08F09927EE0F979521
:1008C000879508950E949D0408F481E008950E9490
:1008D0006E046894B1110C940C0508950E94F10403
:1008E00088F09F5798F0B92F9927B751B0F0E1F0F1
:1008F000660F771F881F991F1AF0BA95C9F714C0A1
:10090000B13091F00E940B05B1E008950C940B05F5
:10091000672F782F8827B85F39F0B93FCCF38695D9
:1009200077956795B395D9F73EF490958095709536
:1009300061957F4F8F4F9F4F0895990F0008550F76
:10094000AA0BE0E8FEEF16161706E807F907C0F055
:1009500012161306E407F50798F0621B730B840B5D
:10096000950B39F40A2661F0232B242B252B21F437
:1009700008950A2609F4A140A6958FEF811D811DD7
:10098000089597F99F6780E870E060E008959FEF11
:1009900080EC089500240A94161617061806090616
:1009A000089500240A9412161306140605060895E5
:1009B000092E0394000C11F4882352F0BB0F40F46D
:1009C000BF2B11F460FF04C06F5F7F4F8F4F9F4FAD
:1009D000089557FD9058440F551F59F05F3F71F02F
:1009E0004795880F97FB991F61F09F3F79F0879596
:1009F0000895121613061406551FF2CF4695F1DF1F
:100A000008C0161617061806991FF1CF86957105AE
:100A1000610508940895E894BB2766277727CB01E2
:100A200097F908950E9425050C94D8040E94CA04E1
:100A300038F00E94D10420F0952311F00C94C104E9
:100A40000C94C70411240C940C050E94E90470F363
:100A5000959FC1F3950F50E0551F629FF001729F63
:100A6000BB27F00DB11D639FAA27F00DB11DAA1F72
:100A7000649F6627B00DA11D661F829F2227B00DBF
:100A8000A11D621F739FB00DA11D621F839FA00D4A
:100A9000611D221F749F3327A00D611D231F849F9A
:100AA000600D211D822F762F6A2F11249F575040F1
:100AB0009AF0F1F088234AF0EE0FFF1FBB1F661F6C
:100AC000771F881F91505040A9F79E3F510580F035
:100AD0000C94C1040C940C055F3FE4F3983ED4F3EE
:100AE000869577956795B795F795E7959F5FC1F7D9
:100AF000FE2B880F911D9695879597F90895F89488
:020B0000FFCF25
:020B02000100F0
:00000001FF
